{
  "_format": "hh-sol-artifact-1",
  "contractName": "EuphoriaClub",
  "sourceName": "contracts/EuphoriaClub.sol",
  "abi": [
    {
      "inputs": [],
      "stateMutability": "nonpayable",
      "type": "constructor"
    },
    {
      "anonymous": false,
      "inputs": [
        {
          "indexed": true,
          "internalType": "address",
          "name": "owner",
          "type": "address"
        },
        {
          "indexed": true,
          "internalType": "address",
          "name": "approved",
          "type": "address"
        },
        {
          "indexed": true,
          "internalType": "uint256",
          "name": "tokenId",
          "type": "uint256"
        }
      ],
      "name": "Approval",
      "type": "event"
    },
    {
      "anonymous": false,
      "inputs": [
        {
          "indexed": true,
          "internalType": "address",
          "name": "owner",
          "type": "address"
        },
        {
          "indexed": true,
          "internalType": "address",
          "name": "operator",
          "type": "address"
        },
        {
          "indexed": false,
          "internalType": "bool",
          "name": "approved",
          "type": "bool"
        }
      ],
      "name": "ApprovalForAll",
      "type": "event"
    },
    {
      "anonymous": false,
      "inputs": [
        {
          "indexed": true,
          "internalType": "address",
          "name": "previousOwner",
          "type": "address"
        },
        {
          "indexed": true,
          "internalType": "address",
          "name": "newOwner",
          "type": "address"
        }
      ],
      "name": "OwnershipTransferred",
      "type": "event"
    },
    {
      "anonymous": false,
      "inputs": [
        {
          "indexed": true,
          "internalType": "address",
          "name": "from",
          "type": "address"
        },
        {
          "indexed": true,
          "internalType": "address",
          "name": "to",
          "type": "address"
        },
        {
          "indexed": true,
          "internalType": "uint256",
          "name": "tokenId",
          "type": "uint256"
        }
      ],
      "name": "Transfer",
      "type": "event"
    },
    {
      "inputs": [],
      "name": "MAX_MINT_PER_TX",
      "outputs": [
        {
          "internalType": "uint256",
          "name": "",
          "type": "uint256"
        }
      ],
      "stateMutability": "view",
      "type": "function"
    },
    {
      "inputs": [],
      "name": "MAX_PRESALE_SUPPLY",
      "outputs": [
        {
          "internalType": "uint256",
          "name": "",
          "type": "uint256"
        }
      ],
      "stateMutability": "view",
      "type": "function"
    },
    {
      "inputs": [],
      "name": "MAX_SUPPLY",
      "outputs": [
        {
          "internalType": "uint256",
          "name": "",
          "type": "uint256"
        }
      ],
      "stateMutability": "view",
      "type": "function"
    },
    {
      "inputs": [],
      "name": "a1",
      "outputs": [
        {
          "internalType": "address",
          "name": "",
          "type": "address"
        }
      ],
      "stateMutability": "view",
      "type": "function"
    },
    {
      "inputs": [],
      "name": "a2",
      "outputs": [
        {
          "internalType": "address",
          "name": "",
          "type": "address"
        }
      ],
      "stateMutability": "view",
      "type": "function"
    },
    {
      "inputs": [],
      "name": "a3",
      "outputs": [
        {
          "internalType": "address",
          "name": "",
          "type": "address"
        }
      ],
      "stateMutability": "view",
      "type": "function"
    },
    {
      "inputs": [
        {
          "internalType": "address",
          "name": "to",
          "type": "address"
        },
        {
          "internalType": "uint256",
          "name": "tokenId",
          "type": "uint256"
        }
      ],
      "name": "approve",
      "outputs": [],
      "stateMutability": "nonpayable",
      "type": "function"
    },
    {
      "inputs": [
        {
          "internalType": "address",
          "name": "owner",
          "type": "address"
        }
      ],
      "name": "balanceOf",
      "outputs": [
        {
          "internalType": "uint256",
          "name": "",
          "type": "uint256"
        }
      ],
      "stateMutability": "view",
      "type": "function"
    },
    {
      "inputs": [],
      "name": "baseTokenURI",
      "outputs": [
        {
          "internalType": "string",
          "name": "",
          "type": "string"
        }
      ],
      "stateMutability": "view",
      "type": "function"
    },
    {
      "inputs": [
        {
          "internalType": "address[]",
          "name": "_a",
          "type": "address[]"
        },
        {
          "internalType": "uint256[]",
          "name": "_amount",
          "type": "uint256[]"
        }
      ],
      "name": "editWhitelistReserved",
      "outputs": [],
      "stateMutability": "nonpayable",
      "type": "function"
    },
    {
      "inputs": [
        {
          "internalType": "uint256",
          "name": "tokenId",
          "type": "uint256"
        }
      ],
      "name": "getApproved",
      "outputs": [
        {
          "internalType": "address",
          "name": "",
          "type": "address"
        }
      ],
      "stateMutability": "view",
      "type": "function"
    },
    {
      "inputs": [],
      "name": "initial_price",
      "outputs": [
        {
          "internalType": "uint256",
          "name": "",
          "type": "uint256"
        }
      ],
      "stateMutability": "view",
      "type": "function"
    },
    {
      "inputs": [
        {
          "internalType": "address",
          "name": "owner",
          "type": "address"
        },
        {
          "internalType": "address",
          "name": "operator",
          "type": "address"
        }
      ],
      "name": "isApprovedForAll",
      "outputs": [
        {
          "internalType": "bool",
          "name": "",
          "type": "bool"
        }
      ],
      "stateMutability": "view",
      "type": "function"
    },
    {
      "inputs": [
        {
          "internalType": "uint256",
          "name": "_amount",
          "type": "uint256"
        }
      ],
      "name": "mintPresale",
      "outputs": [],
      "stateMutability": "payable",
      "type": "function"
    },
    {
      "inputs": [
        {
          "internalType": "uint256",
          "name": "_amount",
          "type": "uint256"
        }
      ],
      "name": "mintReserved",
      "outputs": [],
      "stateMutability": "nonpayable",
      "type": "function"
    },
    {
      "inputs": [
        {
          "internalType": "uint256",
          "name": "_amount",
          "type": "uint256"
        }
      ],
      "name": "mintToken",
      "outputs": [],
      "stateMutability": "payable",
      "type": "function"
    },
    {
      "inputs": [
        {
          "internalType": "uint256",
          "name": "_amount",
          "type": "uint256"
        }
      ],
      "name": "mintWhitelist",
      "outputs": [],
      "stateMutability": "payable",
      "type": "function"
    },
    {
      "inputs": [],
      "name": "name",
      "outputs": [
        {
          "internalType": "string",
          "name": "",
          "type": "string"
        }
      ],
      "stateMutability": "view",
      "type": "function"
    },
    {
      "inputs": [],
      "name": "owner",
      "outputs": [
        {
          "internalType": "address",
          "name": "",
          "type": "address"
        }
      ],
      "stateMutability": "view",
      "type": "function"
    },
    {
      "inputs": [
        {
          "internalType": "uint256",
          "name": "tokenId",
          "type": "uint256"
        }
      ],
      "name": "ownerOf",
      "outputs": [
        {
          "internalType": "address",
          "name": "",
          "type": "address"
        }
      ],
      "stateMutability": "view",
      "type": "function"
    },
    {
      "inputs": [],
      "name": "presaleActive",
      "outputs": [
        {
          "internalType": "bool",
          "name": "",
          "type": "bool"
        }
      ],
      "stateMutability": "view",
      "type": "function"
    },
    {
      "inputs": [],
      "name": "price",
      "outputs": [
        {
          "internalType": "uint256",
          "name": "",
          "type": "uint256"
        }
      ],
      "stateMutability": "view",
      "type": "function"
    },
    {
      "inputs": [],
      "name": "renounceOwnership",
      "outputs": [],
      "stateMutability": "nonpayable",
      "type": "function"
    },
    {
      "inputs": [],
      "name": "reserved",
      "outputs": [
        {
          "internalType": "uint256",
          "name": "",
          "type": "uint256"
        }
      ],
      "stateMutability": "view",
      "type": "function"
    },
    {
      "inputs": [
        {
          "internalType": "address",
          "name": "from",
          "type": "address"
        },
        {
          "internalType": "address",
          "name": "to",
          "type": "address"
        },
        {
          "internalType": "uint256",
          "name": "tokenId",
          "type": "uint256"
        }
      ],
      "name": "safeTransferFrom",
      "outputs": [],
      "stateMutability": "nonpayable",
      "type": "function"
    },
    {
      "inputs": [
        {
          "internalType": "address",
          "name": "from",
          "type": "address"
        },
        {
          "internalType": "address",
          "name": "to",
          "type": "address"
        },
        {
          "internalType": "uint256",
          "name": "tokenId",
          "type": "uint256"
        },
        {
          "internalType": "bytes",
          "name": "_data",
          "type": "bytes"
        }
      ],
      "name": "safeTransferFrom",
      "outputs": [],
      "stateMutability": "nonpayable",
      "type": "function"
    },
    {
      "inputs": [],
      "name": "saleActive",
      "outputs": [
        {
          "internalType": "bool",
          "name": "",
          "type": "bool"
        }
      ],
      "stateMutability": "view",
      "type": "function"
    },
    {
      "inputs": [
        {
          "internalType": "address[]",
          "name": "_a",
          "type": "address[]"
        }
      ],
      "name": "setAddresses",
      "outputs": [],
      "stateMutability": "nonpayable",
      "type": "function"
    },
    {
      "inputs": [
        {
          "internalType": "address",
          "name": "operator",
          "type": "address"
        },
        {
          "internalType": "bool",
          "name": "approved",
          "type": "bool"
        }
      ],
      "name": "setApprovalForAll",
      "outputs": [],
      "stateMutability": "nonpayable",
      "type": "function"
    },
    {
      "inputs": [
        {
          "internalType": "string",
          "name": "baseURI",
          "type": "string"
        }
      ],
      "name": "setBaseURI",
      "outputs": [],
      "stateMutability": "nonpayable",
      "type": "function"
    },
    {
      "inputs": [
        {
          "internalType": "bool",
          "name": "val",
          "type": "bool"
        }
      ],
      "name": "setPresaleActive",
      "outputs": [],
      "stateMutability": "nonpayable",
      "type": "function"
    },
    {
      "inputs": [
        {
          "internalType": "uint256",
          "name": "newPrice",
          "type": "uint256"
        }
      ],
      "name": "setPrice",
      "outputs": [],
      "stateMutability": "nonpayable",
      "type": "function"
    },
    {
      "inputs": [
        {
          "internalType": "bool",
          "name": "val",
          "type": "bool"
        }
      ],
      "name": "setSaleActive",
      "outputs": [],
      "stateMutability": "nonpayable",
      "type": "function"
    },
    {
      "inputs": [
        {
          "internalType": "bool",
          "name": "val",
          "type": "bool"
        }
      ],
      "name": "setWhitelistActive",
      "outputs": [],
      "stateMutability": "nonpayable",
      "type": "function"
    },
    {
      "inputs": [
        {
          "internalType": "bytes4",
          "name": "interfaceId",
          "type": "bytes4"
        }
      ],
      "name": "supportsInterface",
      "outputs": [
        {
          "internalType": "bool",
          "name": "",
          "type": "bool"
        }
      ],
      "stateMutability": "view",
      "type": "function"
    },
    {
      "inputs": [],
      "name": "symbol",
      "outputs": [
        {
          "internalType": "string",
          "name": "",
          "type": "string"
        }
      ],
      "stateMutability": "view",
      "type": "function"
    },
    {
      "inputs": [
        {
          "internalType": "uint256",
          "name": "index",
          "type": "uint256"
        }
      ],
      "name": "tokenByIndex",
      "outputs": [
        {
          "internalType": "uint256",
          "name": "",
          "type": "uint256"
        }
      ],
      "stateMutability": "view",
      "type": "function"
    },
    {
      "inputs": [
        {
          "internalType": "address",
          "name": "owner",
          "type": "address"
        },
        {
          "internalType": "uint256",
          "name": "index",
          "type": "uint256"
        }
      ],
      "name": "tokenOfOwnerByIndex",
      "outputs": [
        {
          "internalType": "uint256",
          "name": "",
          "type": "uint256"
        }
      ],
      "stateMutability": "view",
      "type": "function"
    },
    {
      "inputs": [
        {
          "internalType": "uint256",
          "name": "tokenId",
          "type": "uint256"
        }
      ],
      "name": "tokenURI",
      "outputs": [
        {
          "internalType": "string",
          "name": "",
          "type": "string"
        }
      ],
      "stateMutability": "view",
      "type": "function"
    },
    {
      "inputs": [
        {
          "internalType": "address",
          "name": "addr",
          "type": "address"
        }
      ],
      "name": "tokensOfOwner",
      "outputs": [
        {
          "internalType": "uint256[]",
          "name": "",
          "type": "uint256[]"
        }
      ],
      "stateMutability": "view",
      "type": "function"
    },
    {
      "inputs": [],
      "name": "totalSupply",
      "outputs": [
        {
          "internalType": "uint256",
          "name": "",
          "type": "uint256"
        }
      ],
      "stateMutability": "view",
      "type": "function"
    },
    {
      "inputs": [
        {
          "internalType": "address",
          "name": "from",
          "type": "address"
        },
        {
          "internalType": "address",
          "name": "to",
          "type": "address"
        },
        {
          "internalType": "uint256",
          "name": "tokenId",
          "type": "uint256"
        }
      ],
      "name": "transferFrom",
      "outputs": [],
      "stateMutability": "nonpayable",
      "type": "function"
    },
    {
      "inputs": [
        {
          "internalType": "address",
          "name": "newOwner",
          "type": "address"
        }
      ],
      "name": "transferOwnership",
      "outputs": [],
      "stateMutability": "nonpayable",
      "type": "function"
    },
    {
      "inputs": [],
      "name": "whitelistActive",
      "outputs": [
        {
          "internalType": "bool",
          "name": "",
          "type": "bool"
        }
      ],
      "stateMutability": "view",
      "type": "function"
    },
    {
      "inputs": [
        {
          "internalType": "address",
          "name": "",
          "type": "address"
        }
      ],
      "name": "whitelistReserved",
      "outputs": [
        {
          "internalType": "uint256",
          "name": "",
          "type": "uint256"
        }
      ],
      "stateMutability": "view",
      "type": "function"
    },
    {
      "inputs": [
        {
          "internalType": "uint256",
          "name": "amount",
          "type": "uint256"
        }
      ],
      "name": "withdrawTeam",
      "outputs": [],
      "stateMutability": "payable",
      "type": "function"
    }
  ],
  "bytecode": "0x60806040526000600a60146101000a81548160ff0219169083151502179055506000600a60156101000a81548160ff0219169083151502179055506000600a60166101000a81548160ff0219169083151502179055506014600b55662386f26fc10000600c556040518060600160405280602e815260200162005733602e9139600e90805190602001906200009692919062000242565b50348015620000a457600080fd5b506040518060400160405280600d81526020017f457570686f72696120436c7562000000000000000000000000000000000000008152506040518060400160405280600481526020017f455550480000000000000000000000000000000000000000000000000000000081525081600090805190602001906200012992919062000242565b5080600190805190602001906200014292919062000242565b50505062000165620001596200017460201b60201c565b6200017c60201b60201c565b600c54600d8190555062000357565b600033905090565b6000600a60009054906101000a900473ffffffffffffffffffffffffffffffffffffffff16905081600a60006101000a81548173ffffffffffffffffffffffffffffffffffffffff021916908373ffffffffffffffffffffffffffffffffffffffff1602179055508173ffffffffffffffffffffffffffffffffffffffff168173ffffffffffffffffffffffffffffffffffffffff167f8be0079c531659141344cd1fd0a4f28419497f9722a3daafe3b4186f6b6457e060405160405180910390a35050565b828054620002509062000321565b90600052602060002090601f016020900481019282620002745760008555620002c0565b82601f106200028f57805160ff1916838001178555620002c0565b82800160010185558215620002c0579182015b82811115620002bf578251825591602001919060010190620002a2565b5b509050620002cf9190620002d3565b5090565b5b80821115620002ee576000816000905550600101620002d4565b5090565b7f4e487b7100000000000000000000000000000000000000000000000000000000600052602260045260246000fd5b600060028204905060018216806200033a57607f821691505b60208210811415620003515762000350620002f2565b5b50919050565b6153cc80620003676000396000f3fe60806040526004361061027d5760003560e01c80638462151c1161014f578063b88d4fde116100c1578063e985e9c51161007a578063e985e9c514610992578063f14c0bcc146109cf578063f2fde38b146109f8578063f759867a14610a21578063fd2b049214610a3d578063fe60d12c14610a595761027d565b8063b88d4fde14610893578063b9571721146108bc578063c3b754dc146108e5578063c634d0321461090e578063c87b56dd1461092a578063d547cfb7146109675761027d565b806395d89b411161011357806395d89b4114610795578063969e9d0c146107c05780639a5d140b146107eb578063a035b1fe14610814578063a22cb4651461083f578063ab3f5a1a146108685761027d565b80638462151c146106ae5780638da5cb5b146106eb5780638ecad7211461071657806391b7f5ed146107415780639426eef81461076a5761027d565b806342842e0e116101f357806368428a1b116101ac57806368428a1b1461059e5780636b8dc355146105c957806370a08231146105f4578063715018a61461063157806372e3a3eb14610648578063841718a6146106855761027d565b806342842e0e1461048b5780634618163e146104b45780634f6ccce7146104d057806353135ca01461050d57806355f804b3146105385780636352211e146105615761027d565b8063119552a111610245578063119552a11461037b57806318160ddd146103a657806323b872dd146103d15780632f745c59146103fa57806332cb6b0c146104375780633f8121a2146104625761027d565b806301ffc9a71461028257806302ce5813146102bf57806306fdde03146102ea578063081812fc14610315578063095ea7b314610352575b600080fd5b34801561028e57600080fd5b506102a960048036038101906102a49190613791565b610a84565b6040516102b691906137d9565b60405180910390f35b3480156102cb57600080fd5b506102d4610afe565b6040516102e191906137d9565b60405180910390f35b3480156102f657600080fd5b506102ff610b11565b60405161030c919061388d565b60405180910390f35b34801561032157600080fd5b5061033c600480360381019061033791906138e5565b610ba3565b6040516103499190613953565b60405180910390f35b34801561035e57600080fd5b506103796004803603810190610374919061399a565b610c28565b005b34801561038757600080fd5b50610390610d40565b60405161039d9190613953565b60405180910390f35b3480156103b257600080fd5b506103bb610d66565b6040516103c891906139e9565b60405180910390f35b3480156103dd57600080fd5b506103f860048036038101906103f39190613a04565b610d73565b005b34801561040657600080fd5b50610421600480360381019061041c919061399a565b610dd3565b60405161042e91906139e9565b60405180910390f35b34801561044357600080fd5b5061044c610e78565b60405161045991906139e9565b60405180910390f35b34801561046e57600080fd5b5061048960048036038101906104849190613a83565b610e7e565b005b34801561049757600080fd5b506104b260048036038101906104ad9190613a04565b610f17565b005b6104ce60048036038101906104c991906138e5565b610f37565b005b3480156104dc57600080fd5b506104f760048036038101906104f291906138e5565b611183565b60405161050491906139e9565b60405180910390f35b34801561051957600080fd5b506105226111f4565b60405161052f91906137d9565b60405180910390f35b34801561054457600080fd5b5061055f600480360381019061055a9190613be5565b611207565b005b34801561056d57600080fd5b50610588600480360381019061058391906138e5565b61129d565b6040516105959190613953565b60405180910390f35b3480156105aa57600080fd5b506105b361134f565b6040516105c091906137d9565b60405180910390f35b3480156105d557600080fd5b506105de611362565b6040516105eb91906139e9565b60405180910390f35b34801561060057600080fd5b5061061b60048036038101906106169190613c2e565b611368565b60405161062891906139e9565b60405180910390f35b34801561063d57600080fd5b50610646611420565b005b34801561065457600080fd5b5061066f600480360381019061066a9190613c2e565b6114a8565b60405161067c91906139e9565b60405180910390f35b34801561069157600080fd5b506106ac60048036038101906106a79190613a83565b6114c0565b005b3480156106ba57600080fd5b506106d560048036038101906106d09190613c2e565b611559565b6040516106e29190613d19565b60405180910390f35b3480156106f757600080fd5b50610700611607565b60405161070d9190613953565b60405180910390f35b34801561072257600080fd5b5061072b611631565b60405161073891906139e9565b60405180910390f35b34801561074d57600080fd5b50610768600480360381019061076391906138e5565b611636565b005b34801561077657600080fd5b5061077f6116bc565b60405161078c9190613953565b60405180910390f35b3480156107a157600080fd5b506107aa6116e2565b6040516107b7919061388d565b60405180910390f35b3480156107cc57600080fd5b506107d5611774565b6040516107e29190613953565b60405180910390f35b3480156107f757600080fd5b50610812600480360381019061080d91906138e5565b61179a565b005b34801561082057600080fd5b506108296118b8565b60405161083691906139e9565b60405180910390f35b34801561084b57600080fd5b5061086660048036038101906108619190613d3b565b6118be565b005b34801561087457600080fd5b5061087d6118d4565b60405161088a91906139e9565b60405180910390f35b34801561089f57600080fd5b506108ba60048036038101906108b59190613e1c565b6118da565b005b3480156108c857600080fd5b506108e360048036038101906108de9190613f67565b61193c565b005b3480156108f157600080fd5b5061090c60048036038101906109079190613a83565b611acf565b005b610928600480360381019061092391906138e5565b611b68565b005b34801561093657600080fd5b50610951600480360381019061094c91906138e5565b611cea565b60405161095e919061388d565b60405180910390f35b34801561097357600080fd5b5061097c611d91565b604051610989919061388d565b60405180910390f35b34801561099e57600080fd5b506109b960048036038101906109b49190613fb0565b611e1f565b6040516109c691906137d9565b60405180910390f35b3480156109db57600080fd5b506109f660048036038101906109f191906140b3565b611eb3565b005b348015610a0457600080fd5b50610a1f6004803603810190610a1a9190613c2e565b611fcb565b005b610a3b6004803603810190610a3691906138e5565b6120c3565b005b610a576004803603810190610a5291906138e5565b612245565b005b348015610a6557600080fd5b50610a6e61241a565b604051610a7b91906139e9565b60405180910390f35b60007f780e9d63000000000000000000000000000000000000000000000000000000007bffffffffffffffffffffffffffffffffffffffffffffffffffffffff1916827bffffffffffffffffffffffffffffffffffffffffffffffffffffffff19161480610af75750610af682612420565b5b9050919050565b600a60159054906101000a900460ff1681565b606060008054610b209061415a565b80601f0160208091040260200160405190810160405280929190818152602001828054610b4c9061415a565b8015610b995780601f10610b6e57610100808354040283529160200191610b99565b820191906000526020600020905b815481529060010190602001808311610b7c57829003601f168201915b5050505050905090565b6000610bae82612502565b610bed576040517f08c379a0000000000000000000000000000000000000000000000000000000008152600401610be4906141fe565b60405180910390fd5b6004600083815260200190815260200160002060009054906101000a900473ffffffffffffffffffffffffffffffffffffffff169050919050565b6000610c338261129d565b90508073ffffffffffffffffffffffffffffffffffffffff168373ffffffffffffffffffffffffffffffffffffffff161415610ca4576040517f08c379a0000000000000000000000000000000000000000000000000000000008152600401610c9b90614290565b60405180910390fd5b8073ffffffffffffffffffffffffffffffffffffffff16610cc361256e565b73ffffffffffffffffffffffffffffffffffffffff161480610cf25750610cf181610cec61256e565b611e1f565b5b610d31576040517f08c379a0000000000000000000000000000000000000000000000000000000008152600401610d2890614322565b60405180910390fd5b610d3b8383612576565b505050565b600f60009054906101000a900473ffffffffffffffffffffffffffffffffffffffff1681565b6000600880549050905090565b610d84610d7e61256e565b8261262f565b610dc3576040517f08c379a0000000000000000000000000000000000000000000000000000000008152600401610dba906143b4565b60405180910390fd5b610dce83838361270d565b505050565b6000610dde83611368565b8210610e1f576040517f08c379a0000000000000000000000000000000000000000000000000000000008152600401610e1690614446565b60405180910390fd5b600660008473ffffffffffffffffffffffffffffffffffffffff1673ffffffffffffffffffffffffffffffffffffffff168152602001908152602001600020600083815260200190815260200160002054905092915050565b61114481565b610e8661256e565b73ffffffffffffffffffffffffffffffffffffffff16610ea4611607565b73ffffffffffffffffffffffffffffffffffffffff1614610efa576040517f08c379a0000000000000000000000000000000000000000000000000000000008152600401610ef1906144b2565b60405180910390fd5b80600a60166101000a81548160ff02191690831515021790555050565b610f32838383604051806020016040528060008152506118da565b505050565b6000610f41610d66565b90506000601260003373ffffffffffffffffffffffffffffffffffffffff1673ffffffffffffffffffffffffffffffffffffffff168152602001908152602001600020549050600a60159054906101000a900460ff16610fd6576040517f08c379a0000000000000000000000000000000000000000000000000000000008152600401610fcd9061451e565b60405180910390fd5b60008111611019576040517f08c379a0000000000000000000000000000000000000000000000000000000008152600401611010906145b0565b60405180910390fd5b8083111561105c576040517f08c379a00000000000000000000000000000000000000000000000000000000081526004016110539061461c565b60405180910390fd5b611144838361106b919061466b565b11156110ac576040517f08c379a00000000000000000000000000000000000000000000000000000000081526004016110a39061470d565b60405180910390fd5b82600d546110ba919061472d565b34146110fb576040517f08c379a00000000000000000000000000000000000000000000000000000000081526004016110f2906147d3565b60405180910390fd5b828161110791906147f3565b601260003373ffffffffffffffffffffffffffffffffffffffff1673ffffffffffffffffffffffffffffffffffffffff1681526020019081526020016000208190555060005b8381101561117d5761116a338285611165919061466b565b612974565b808061117590614827565b91505061114d565b50505050565b600061118d610d66565b82106111ce576040517f08c379a00000000000000000000000000000000000000000000000000000000081526004016111c5906148e2565b60405180910390fd5b600882815481106111e2576111e1614902565b5b90600052602060002001549050919050565b600a60169054906101000a900460ff1681565b61120f61256e565b73ffffffffffffffffffffffffffffffffffffffff1661122d611607565b73ffffffffffffffffffffffffffffffffffffffff1614611283576040517f08c379a000000000000000000000000000000000000000000000000000000000815260040161127a906144b2565b60405180910390fd5b80600e9080519060200190611299929190613682565b5050565b6000806002600084815260200190815260200160002060009054906101000a900473ffffffffffffffffffffffffffffffffffffffff169050600073ffffffffffffffffffffffffffffffffffffffff168173ffffffffffffffffffffffffffffffffffffffff161415611346576040517f08c379a000000000000000000000000000000000000000000000000000000000815260040161133d906149a3565b60405180910390fd5b80915050919050565b600a60149054906101000a900460ff1681565b6101a481565b60008073ffffffffffffffffffffffffffffffffffffffff168273ffffffffffffffffffffffffffffffffffffffff1614156113d9576040517f08c379a00000000000000000000000000000000000000000000000000000000081526004016113d090614a35565b60405180910390fd5b600360008373ffffffffffffffffffffffffffffffffffffffff1673ffffffffffffffffffffffffffffffffffffffff168152602001908152602001600020549050919050565b61142861256e565b73ffffffffffffffffffffffffffffffffffffffff16611446611607565b73ffffffffffffffffffffffffffffffffffffffff161461149c576040517f08c379a0000000000000000000000000000000000000000000000000000000008152600401611493906144b2565b60405180910390fd5b6114a66000612992565b565b60126020528060005260406000206000915090505481565b6114c861256e565b73ffffffffffffffffffffffffffffffffffffffff166114e6611607565b73ffffffffffffffffffffffffffffffffffffffff161461153c576040517f08c379a0000000000000000000000000000000000000000000000000000000008152600401611533906144b2565b60405180910390fd5b80600a60146101000a81548160ff02191690831515021790555050565b6060600061156683611368565b905060008167ffffffffffffffff81111561158457611583613aba565b5b6040519080825280602002602001820160405280156115b25781602001602082028036833780820191505090505b50905060005b828110156115fc576115ca8582610dd3565b8282815181106115dd576115dc614902565b5b60200260200101818152505080806115f490614827565b9150506115b8565b508092505050919050565b6000600a60009054906101000a900473ffffffffffffffffffffffffffffffffffffffff16905090565b601481565b61163e61256e565b73ffffffffffffffffffffffffffffffffffffffff1661165c611607565b73ffffffffffffffffffffffffffffffffffffffff16146116b2576040517f08c379a00000000000000000000000000000000000000000000000000000000081526004016116a9906144b2565b60405180910390fd5b80600d8190555050565b601160009054906101000a900473ffffffffffffffffffffffffffffffffffffffff1681565b6060600180546116f19061415a565b80601f016020809104026020016040519081016040528092919081815260200182805461171d9061415a565b801561176a5780601f1061173f5761010080835404028352916020019161176a565b820191906000526020600020905b81548152906001019060200180831161174d57829003601f168201915b5050505050905090565b601060009054906101000a900473ffffffffffffffffffffffffffffffffffffffff1681565b6117a261256e565b73ffffffffffffffffffffffffffffffffffffffff166117c0611607565b73ffffffffffffffffffffffffffffffffffffffff1614611816576040517f08c379a000000000000000000000000000000000000000000000000000000000815260040161180d906144b2565b60405180910390fd5b600b5481111561185b576040517f08c379a000000000000000000000000000000000000000000000000000000000815260040161185290614ac7565b60405180910390fd5b80600b600082825461186d91906147f3565b92505081905550600061187e610d66565b905060005b828110156118b3576118a033828461189b919061466b565b612974565b80806118ab90614827565b915050611883565b505050565b600d5481565b6118d06118c961256e565b8383612a58565b5050565b600c5481565b6118eb6118e561256e565b8361262f565b61192a576040517f08c379a0000000000000000000000000000000000000000000000000000000008152600401611921906143b4565b60405180910390fd5b61193684848484612bc5565b50505050565b61194461256e565b73ffffffffffffffffffffffffffffffffffffffff16611962611607565b73ffffffffffffffffffffffffffffffffffffffff16146119b8576040517f08c379a00000000000000000000000000000000000000000000000000000000081526004016119af906144b2565b60405180910390fd5b806000815181106119cc576119cb614902565b5b6020026020010151600f60006101000a81548173ffffffffffffffffffffffffffffffffffffffff021916908373ffffffffffffffffffffffffffffffffffffffff16021790555080600181518110611a2857611a27614902565b5b6020026020010151601060006101000a81548173ffffffffffffffffffffffffffffffffffffffff021916908373ffffffffffffffffffffffffffffffffffffffff16021790555080600281518110611a8457611a83614902565b5b6020026020010151601160006101000a81548173ffffffffffffffffffffffffffffffffffffffff021916908373ffffffffffffffffffffffffffffffffffffffff16021790555050565b611ad761256e565b73ffffffffffffffffffffffffffffffffffffffff16611af5611607565b73ffffffffffffffffffffffffffffffffffffffff1614611b4b576040517f08c379a0000000000000000000000000000000000000000000000000000000008152600401611b42906144b2565b60405180910390fd5b80600a60156101000a81548160ff02191690831515021790555050565b6000611b72610d66565b9050600a60149054906101000a900460ff16611bc3576040517f08c379a0000000000000000000000000000000000000000000000000000000008152600401611bba90614b33565b60405180910390fd5b600082118015611bd4575060148211155b611c13576040517f08c379a0000000000000000000000000000000000000000000000000000000008152600401611c0a90614bc5565b60405180910390fd5b6111448282611c22919061466b565b1115611c63576040517f08c379a0000000000000000000000000000000000000000000000000000000008152600401611c5a9061470d565b60405180910390fd5b81600d54611c71919061472d565b3414611cb2576040517f08c379a0000000000000000000000000000000000000000000000000000000008152600401611ca9906147d3565b60405180910390fd5b60005b82811015611ce557611cd2338284611ccd919061466b565b612974565b8080611cdd90614827565b915050611cb5565b505050565b6060611cf582612502565b611d34576040517f08c379a0000000000000000000000000000000000000000000000000000000008152600401611d2b90614c57565b60405180910390fd5b6000611d3e612c21565b90506000815111611d5e5760405180602001604052806000815250611d89565b80611d6884612cb3565b604051602001611d79929190614cb3565b6040516020818303038152906040525b915050919050565b600e8054611d9e9061415a565b80601f0160208091040260200160405190810160405280929190818152602001828054611dca9061415a565b8015611e175780601f10611dec57610100808354040283529160200191611e17565b820191906000526020600020905b815481529060010190602001808311611dfa57829003601f168201915b505050505081565b6000600560008473ffffffffffffffffffffffffffffffffffffffff1673ffffffffffffffffffffffffffffffffffffffff16815260200190815260200160002060008373ffffffffffffffffffffffffffffffffffffffff1673ffffffffffffffffffffffffffffffffffffffff16815260200190815260200160002060009054906101000a900460ff16905092915050565b611ebb61256e565b73ffffffffffffffffffffffffffffffffffffffff16611ed9611607565b73ffffffffffffffffffffffffffffffffffffffff1614611f2f576040517f08c379a0000000000000000000000000000000000000000000000000000000008152600401611f26906144b2565b60405180910390fd5b60005b8251811015611fc657818181518110611f4e57611f4d614902565b5b602002602001015160126000858481518110611f6d57611f6c614902565b5b602002602001015173ffffffffffffffffffffffffffffffffffffffff1673ffffffffffffffffffffffffffffffffffffffff168152602001908152602001600020819055508080611fbe90614827565b915050611f32565b505050565b611fd361256e565b73ffffffffffffffffffffffffffffffffffffffff16611ff1611607565b73ffffffffffffffffffffffffffffffffffffffff1614612047576040517f08c379a000000000000000000000000000000000000000000000000000000000815260040161203e906144b2565b60405180910390fd5b600073ffffffffffffffffffffffffffffffffffffffff168173ffffffffffffffffffffffffffffffffffffffff1614156120b7576040517f08c379a00000000000000000000000000000000000000000000000000000000081526004016120ae90614d49565b60405180910390fd5b6120c081612992565b50565b60006120cd610d66565b9050600a60169054906101000a900460ff1661211e576040517f08c379a000000000000000000000000000000000000000000000000000000000815260040161211590614db5565b60405180910390fd5b60008211801561212f575060148211155b61216e576040517f08c379a000000000000000000000000000000000000000000000000000000000815260040161216590614e47565b60405180910390fd5b6101a4828261217d919061466b565b11156121be576040517f08c379a00000000000000000000000000000000000000000000000000000000081526004016121b59061470d565b60405180910390fd5b81600d546121cc919061472d565b341461220d576040517f08c379a0000000000000000000000000000000000000000000000000000000008152600401612204906147d3565b60405180910390fd5b60005b828110156122405761222d338284612228919061466b565b612974565b808061223890614827565b915050612210565b505050565b61224d61256e565b73ffffffffffffffffffffffffffffffffffffffff1661226b611607565b73ffffffffffffffffffffffffffffffffffffffff16146122c1576040517f08c379a00000000000000000000000000000000000000000000000000000000081526004016122b8906144b2565b60405180910390fd5b60006064826122d09190614e96565b9050600f60009054906101000a900473ffffffffffffffffffffffffffffffffffffffff1673ffffffffffffffffffffffffffffffffffffffff166108fc60288361231b919061472d565b9081150290604051600060405180830381858888f1935050505061233e57600080fd5b601060009054906101000a900473ffffffffffffffffffffffffffffffffffffffff1673ffffffffffffffffffffffffffffffffffffffff166108fc601e83612387919061472d565b9081150290604051600060405180830381858888f193505050506123aa57600080fd5b601160009054906101000a900473ffffffffffffffffffffffffffffffffffffffff1673ffffffffffffffffffffffffffffffffffffffff166108fc601e836123f3919061472d565b9081150290604051600060405180830381858888f1935050505061241657600080fd5b5050565b600b5481565b60007f80ac58cd000000000000000000000000000000000000000000000000000000007bffffffffffffffffffffffffffffffffffffffffffffffffffffffff1916827bffffffffffffffffffffffffffffffffffffffffffffffffffffffff191614806124eb57507f5b5e139f000000000000000000000000000000000000000000000000000000007bffffffffffffffffffffffffffffffffffffffffffffffffffffffff1916827bffffffffffffffffffffffffffffffffffffffffffffffffffffffff1916145b806124fb57506124fa82612e14565b5b9050919050565b60008073ffffffffffffffffffffffffffffffffffffffff166002600084815260200190815260200160002060009054906101000a900473ffffffffffffffffffffffffffffffffffffffff1673ffffffffffffffffffffffffffffffffffffffff1614159050919050565b600033905090565b816004600083815260200190815260200160002060006101000a81548173ffffffffffffffffffffffffffffffffffffffff021916908373ffffffffffffffffffffffffffffffffffffffff160217905550808273ffffffffffffffffffffffffffffffffffffffff166125e98361129d565b73ffffffffffffffffffffffffffffffffffffffff167f8c5be1e5ebec7d5bd14f71427d1e84f3dd0314c0f7b2291e5b200ac8c7c3b92560405160405180910390a45050565b600061263a82612502565b612679576040517f08c379a000000000000000000000000000000000000000000000000000000000815260040161267090614f39565b60405180910390fd5b60006126848361129d565b90508073ffffffffffffffffffffffffffffffffffffffff168473ffffffffffffffffffffffffffffffffffffffff1614806126f357508373ffffffffffffffffffffffffffffffffffffffff166126db84610ba3565b73ffffffffffffffffffffffffffffffffffffffff16145b8061270457506127038185611e1f565b5b91505092915050565b8273ffffffffffffffffffffffffffffffffffffffff1661272d8261129d565b73ffffffffffffffffffffffffffffffffffffffff1614612783576040517f08c379a000000000000000000000000000000000000000000000000000000000815260040161277a90614fcb565b60405180910390fd5b600073ffffffffffffffffffffffffffffffffffffffff168273ffffffffffffffffffffffffffffffffffffffff1614156127f3576040517f08c379a00000000000000000000000000000000000000000000000000000000081526004016127ea9061505d565b60405180910390fd5b6127fe838383612e7e565b612809600082612576565b6001600360008573ffffffffffffffffffffffffffffffffffffffff1673ffffffffffffffffffffffffffffffffffffffff168152602001908152602001600020600082825461285991906147f3565b925050819055506001600360008473ffffffffffffffffffffffffffffffffffffffff1673ffffffffffffffffffffffffffffffffffffffff16815260200190815260200160002060008282546128b0919061466b565b92505081905550816002600083815260200190815260200160002060006101000a81548173ffffffffffffffffffffffffffffffffffffffff021916908373ffffffffffffffffffffffffffffffffffffffff160217905550808273ffffffffffffffffffffffffffffffffffffffff168473ffffffffffffffffffffffffffffffffffffffff167fddf252ad1be2c89b69c2b068fc378daa952ba7f163c4a11628f55a4df523b3ef60405160405180910390a461296f838383612f92565b505050565b61298e828260405180602001604052806000815250612f97565b5050565b6000600a60009054906101000a900473ffffffffffffffffffffffffffffffffffffffff16905081600a60006101000a81548173ffffffffffffffffffffffffffffffffffffffff021916908373ffffffffffffffffffffffffffffffffffffffff1602179055508173ffffffffffffffffffffffffffffffffffffffff168173ffffffffffffffffffffffffffffffffffffffff167f8be0079c531659141344cd1fd0a4f28419497f9722a3daafe3b4186f6b6457e060405160405180910390a35050565b8173ffffffffffffffffffffffffffffffffffffffff168373ffffffffffffffffffffffffffffffffffffffff161415612ac7576040517f08c379a0000000000000000000000000000000000000000000000000000000008152600401612abe906150c9565b60405180910390fd5b80600560008573ffffffffffffffffffffffffffffffffffffffff1673ffffffffffffffffffffffffffffffffffffffff16815260200190815260200160002060008473ffffffffffffffffffffffffffffffffffffffff1673ffffffffffffffffffffffffffffffffffffffff16815260200190815260200160002060006101000a81548160ff0219169083151502179055508173ffffffffffffffffffffffffffffffffffffffff168373ffffffffffffffffffffffffffffffffffffffff167f17307eab39ab6107e8899845ad3d59bd9653f200f220920489ca2b5937696c3183604051612bb891906137d9565b60405180910390a3505050565b612bd084848461270d565b612bdc84848484612ff2565b612c1b576040517f08c379a0000000000000000000000000000000000000000000000000000000008152600401612c129061515b565b60405180910390fd5b50505050565b6060600e8054612c309061415a565b80601f0160208091040260200160405190810160405280929190818152602001828054612c5c9061415a565b8015612ca95780601f10612c7e57610100808354040283529160200191612ca9565b820191906000526020600020905b815481529060010190602001808311612c8c57829003601f168201915b5050505050905090565b60606000821415612cfb576040518060400160405280600181526020017f30000000000000000000000000000000000000000000000000000000000000008152509050612e0f565b600082905060005b60008214612d2d578080612d1690614827565b915050600a82612d269190614e96565b9150612d03565b60008167ffffffffffffffff811115612d4957612d48613aba565b5b6040519080825280601f01601f191660200182016040528015612d7b5781602001600182028036833780820191505090505b5090505b60008514612e0857600182612d9491906147f3565b9150600a85612da3919061517b565b6030612daf919061466b565b60f81b818381518110612dc557612dc4614902565b5b60200101907effffffffffffffffffffffffffffffffffffffffffffffffffffffffffffff1916908160001a905350600a85612e019190614e96565b9450612d7f565b8093505050505b919050565b60007f01ffc9a7000000000000000000000000000000000000000000000000000000007bffffffffffffffffffffffffffffffffffffffffffffffffffffffff1916827bffffffffffffffffffffffffffffffffffffffffffffffffffffffff1916149050919050565b612e8983838361317a565b600073ffffffffffffffffffffffffffffffffffffffff168373ffffffffffffffffffffffffffffffffffffffff161415612ecc57612ec78161317f565b612f0b565b8173ffffffffffffffffffffffffffffffffffffffff168373ffffffffffffffffffffffffffffffffffffffff1614612f0a57612f0983826131c8565b5b5b600073ffffffffffffffffffffffffffffffffffffffff168273ffffffffffffffffffffffffffffffffffffffff161415612f4e57612f4981613335565b612f8d565b8273ffffffffffffffffffffffffffffffffffffffff168273ffffffffffffffffffffffffffffffffffffffff1614612f8c57612f8b8282613406565b5b5b505050565b505050565b612fa18383613485565b612fae6000848484612ff2565b612fed576040517f08c379a0000000000000000000000000000000000000000000000000000000008152600401612fe49061515b565b60405180910390fd5b505050565b60006130138473ffffffffffffffffffffffffffffffffffffffff1661365f565b1561316d578373ffffffffffffffffffffffffffffffffffffffff1663150b7a0261303c61256e565b8786866040518563ffffffff1660e01b815260040161305e9493929190615201565b6020604051808303816000875af192505050801561309a57506040513d601f19601f820116820180604052508101906130979190615262565b60015b61311d573d80600081146130ca576040519150601f19603f3d011682016040523d82523d6000602084013e6130cf565b606091505b50600081511415613115576040517f08c379a000000000000000000000000000000000000000000000000000000000815260040161310c9061515b565b60405180910390fd5b805181602001fd5b63150b7a0260e01b7bffffffffffffffffffffffffffffffffffffffffffffffffffffffff1916817bffffffffffffffffffffffffffffffffffffffffffffffffffffffff191614915050613172565b600190505b949350505050565b505050565b6008805490506009600083815260200190815260200160002081905550600881908060018154018082558091505060019003906000526020600020016000909190919091505550565b600060016131d584611368565b6131df91906147f3565b90506000600760008481526020019081526020016000205490508181146132c4576000600660008673ffffffffffffffffffffffffffffffffffffffff1673ffffffffffffffffffffffffffffffffffffffff168152602001908152602001600020600084815260200190815260200160002054905080600660008773ffffffffffffffffffffffffffffffffffffffff1673ffffffffffffffffffffffffffffffffffffffff168152602001908152602001600020600084815260200190815260200160002081905550816007600083815260200190815260200160002081905550505b6007600084815260200190815260200160002060009055600660008573ffffffffffffffffffffffffffffffffffffffff1673ffffffffffffffffffffffffffffffffffffffff16815260200190815260200160002060008381526020019081526020016000206000905550505050565b6000600160088054905061334991906147f3565b905060006009600084815260200190815260200160002054905060006008838154811061337957613378614902565b5b90600052602060002001549050806008838154811061339b5761339a614902565b5b9060005260206000200181905550816009600083815260200190815260200160002081905550600960008581526020019081526020016000206000905560088054806133ea576133e961528f565b5b6001900381819060005260206000200160009055905550505050565b600061341183611368565b905081600660008573ffffffffffffffffffffffffffffffffffffffff1673ffffffffffffffffffffffffffffffffffffffff168152602001908152602001600020600083815260200190815260200160002081905550806007600084815260200190815260200160002081905550505050565b600073ffffffffffffffffffffffffffffffffffffffff168273ffffffffffffffffffffffffffffffffffffffff1614156134f5576040517f08c379a00000000000000000000000000000000000000000000000000000000081526004016134ec9061530a565b60405180910390fd5b6134fe81612502565b1561353e576040517f08c379a000000000000000000000000000000000000000000000000000000000815260040161353590615376565b60405180910390fd5b61354a60008383612e7e565b6001600360008473ffffffffffffffffffffffffffffffffffffffff1673ffffffffffffffffffffffffffffffffffffffff168152602001908152602001600020600082825461359a919061466b565b92505081905550816002600083815260200190815260200160002060006101000a81548173ffffffffffffffffffffffffffffffffffffffff021916908373ffffffffffffffffffffffffffffffffffffffff160217905550808273ffffffffffffffffffffffffffffffffffffffff16600073ffffffffffffffffffffffffffffffffffffffff167fddf252ad1be2c89b69c2b068fc378daa952ba7f163c4a11628f55a4df523b3ef60405160405180910390a461365b60008383612f92565b5050565b6000808273ffffffffffffffffffffffffffffffffffffffff163b119050919050565b82805461368e9061415a565b90600052602060002090601f0160209004810192826136b057600085556136f7565b82601f106136c957805160ff19168380011785556136f7565b828001600101855582156136f7579182015b828111156136f65782518255916020019190600101906136db565b5b5090506137049190613708565b5090565b5b80821115613721576000816000905550600101613709565b5090565b6000604051905090565b600080fd5b600080fd5b60007fffffffff0000000000000000000000000000000000000000000000000000000082169050919050565b61376e81613739565b811461377957600080fd5b50565b60008135905061378b81613765565b92915050565b6000602082840312156137a7576137a661372f565b5b60006137b58482850161377c565b91505092915050565b60008115159050919050565b6137d3816137be565b82525050565b60006020820190506137ee60008301846137ca565b92915050565b600081519050919050565b600082825260208201905092915050565b60005b8381101561382e578082015181840152602081019050613813565b8381111561383d576000848401525b50505050565b6000601f19601f8301169050919050565b600061385f826137f4565b61386981856137ff565b9350613879818560208601613810565b61388281613843565b840191505092915050565b600060208201905081810360008301526138a78184613854565b905092915050565b6000819050919050565b6138c2816138af565b81146138cd57600080fd5b50565b6000813590506138df816138b9565b92915050565b6000602082840312156138fb576138fa61372f565b5b6000613909848285016138d0565b91505092915050565b600073ffffffffffffffffffffffffffffffffffffffff82169050919050565b600061393d82613912565b9050919050565b61394d81613932565b82525050565b60006020820190506139686000830184613944565b92915050565b61397781613932565b811461398257600080fd5b50565b6000813590506139948161396e565b92915050565b600080604083850312156139b1576139b061372f565b5b60006139bf85828601613985565b92505060206139d0858286016138d0565b9150509250929050565b6139e3816138af565b82525050565b60006020820190506139fe60008301846139da565b92915050565b600080600060608486031215613a1d57613a1c61372f565b5b6000613a2b86828701613985565b9350506020613a3c86828701613985565b9250506040613a4d868287016138d0565b9150509250925092565b613a60816137be565b8114613a6b57600080fd5b50565b600081359050613a7d81613a57565b92915050565b600060208284031215613a9957613a9861372f565b5b6000613aa784828501613a6e565b91505092915050565b600080fd5b600080fd5b7f4e487b7100000000000000000000000000000000000000000000000000000000600052604160045260246000fd5b613af282613843565b810181811067ffffffffffffffff82111715613b1157613b10613aba565b5b80604052505050565b6000613b24613725565b9050613b308282613ae9565b919050565b600067ffffffffffffffff821115613b5057613b4f613aba565b5b613b5982613843565b9050602081019050919050565b82818337600083830152505050565b6000613b88613b8384613b35565b613b1a565b905082815260208101848484011115613ba457613ba3613ab5565b5b613baf848285613b66565b509392505050565b600082601f830112613bcc57613bcb613ab0565b5b8135613bdc848260208601613b75565b91505092915050565b600060208284031215613bfb57613bfa61372f565b5b600082013567ffffffffffffffff811115613c1957613c18613734565b5b613c2584828501613bb7565b91505092915050565b600060208284031215613c4457613c4361372f565b5b6000613c5284828501613985565b91505092915050565b600081519050919050565b600082825260208201905092915050565b6000819050602082019050919050565b613c90816138af565b82525050565b6000613ca28383613c87565b60208301905092915050565b6000602082019050919050565b6000613cc682613c5b565b613cd08185613c66565b9350613cdb83613c77565b8060005b83811015613d0c578151613cf38882613c96565b9750613cfe83613cae565b925050600181019050613cdf565b5085935050505092915050565b60006020820190508181036000830152613d338184613cbb565b905092915050565b60008060408385031215613d5257613d5161372f565b5b6000613d6085828601613985565b9250506020613d7185828601613a6e565b9150509250929050565b600067ffffffffffffffff821115613d9657613d95613aba565b5b613d9f82613843565b9050602081019050919050565b6000613dbf613dba84613d7b565b613b1a565b905082815260208101848484011115613ddb57613dda613ab5565b5b613de6848285613b66565b509392505050565b600082601f830112613e0357613e02613ab0565b5b8135613e13848260208601613dac565b91505092915050565b60008060008060808587031215613e3657613e3561372f565b5b6000613e4487828801613985565b9450506020613e5587828801613985565b9350506040613e66878288016138d0565b925050606085013567ffffffffffffffff811115613e8757613e86613734565b5b613e9387828801613dee565b91505092959194509250565b600067ffffffffffffffff821115613eba57613eb9613aba565b5b602082029050602081019050919050565b600080fd5b6000613ee3613ede84613e9f565b613b1a565b90508083825260208201905060208402830185811115613f0657613f05613ecb565b5b835b81811015613f2f5780613f1b8882613985565b845260208401935050602081019050613f08565b5050509392505050565b600082601f830112613f4e57613f4d613ab0565b5b8135613f5e848260208601613ed0565b91505092915050565b600060208284031215613f7d57613f7c61372f565b5b600082013567ffffffffffffffff811115613f9b57613f9a613734565b5b613fa784828501613f39565b91505092915050565b60008060408385031215613fc757613fc661372f565b5b6000613fd585828601613985565b9250506020613fe685828601613985565b9150509250929050565b600067ffffffffffffffff82111561400b5761400a613aba565b5b602082029050602081019050919050565b600061402f61402a84613ff0565b613b1a565b9050808382526020820190506020840283018581111561405257614051613ecb565b5b835b8181101561407b578061406788826138d0565b845260208401935050602081019050614054565b5050509392505050565b600082601f83011261409a57614099613ab0565b5b81356140aa84826020860161401c565b91505092915050565b600080604083850312156140ca576140c961372f565b5b600083013567ffffffffffffffff8111156140e8576140e7613734565b5b6140f485828601613f39565b925050602083013567ffffffffffffffff81111561411557614114613734565b5b61412185828601614085565b9150509250929050565b7f4e487b7100000000000000000000000000000000000000000000000000000000600052602260045260246000fd5b6000600282049050600182168061417257607f821691505b602082108114156141865761418561412b565b5b50919050565b7f4552433732313a20617070726f76656420717565727920666f72206e6f6e657860008201527f697374656e7420746f6b656e0000000000000000000000000000000000000000602082015250565b60006141e8602c836137ff565b91506141f38261418c565b604082019050919050565b60006020820190508181036000830152614217816141db565b9050919050565b7f4552433732313a20617070726f76616c20746f2063757272656e74206f776e6560008201527f7200000000000000000000000000000000000000000000000000000000000000602082015250565b600061427a6021836137ff565b91506142858261421e565b604082019050919050565b600060208201905081810360008301526142a98161426d565b9050919050565b7f4552433732313a20617070726f76652063616c6c6572206973206e6f74206f7760008201527f6e6572206e6f7220617070726f76656420666f7220616c6c0000000000000000602082015250565b600061430c6038836137ff565b9150614317826142b0565b604082019050919050565b6000602082019050818103600083015261433b816142ff565b9050919050565b7f4552433732313a207472616e736665722063616c6c6572206973206e6f74206f60008201527f776e6572206e6f7220617070726f766564000000000000000000000000000000602082015250565b600061439e6031836137ff565b91506143a982614342565b604082019050919050565b600060208201905081810360008301526143cd81614391565b9050919050565b7f455243373231456e756d657261626c653a206f776e657220696e646578206f7560008201527f74206f6620626f756e6473000000000000000000000000000000000000000000602082015250565b6000614430602b836137ff565b915061443b826143d4565b604082019050919050565b6000602082019050818103600083015261445f81614423565b9050919050565b7f4f776e61626c653a2063616c6c6572206973206e6f7420746865206f776e6572600082015250565b600061449c6020836137ff565b91506144a782614466565b602082019050919050565b600060208201905081810360008301526144cb8161448f565b9050919050565b7f57686974656c6973742069736e27742061637469766500000000000000000000600082015250565b60006145086016836137ff565b9150614513826144d2565b602082019050919050565b60006020820190508181036000830152614537816144fb565b9050919050565b7f4e6f20746f6b656e7320726573657276656420666f7220796f7572206164647260008201527f6573730000000000000000000000000000000000000000000000000000000000602082015250565b600061459a6023836137ff565b91506145a58261453e565b604082019050919050565b600060208201905081810360008301526145c98161458d565b9050919050565b7f43616e2774206d696e74206d6f7265207468616e207265736572766564000000600082015250565b6000614606601d836137ff565b9150614611826145d0565b602082019050919050565b60006020820190508181036000830152614635816145f9565b9050919050565b7f4e487b7100000000000000000000000000000000000000000000000000000000600052601160045260246000fd5b6000614676826138af565b9150614681836138af565b9250827fffffffffffffffffffffffffffffffffffffffffffffffffffffffffffffffff038211156146b6576146b561463c565b5b828201905092915050565b7f43616e2774206d696e74206d6f7265207468616e206d617820737570706c7900600082015250565b60006146f7601f836137ff565b9150614702826146c1565b602082019050919050565b60006020820190508181036000830152614726816146ea565b9050919050565b6000614738826138af565b9150614743836138af565b9250817fffffffffffffffffffffffffffffffffffffffffffffffffffffffffffffffff048311821515161561477c5761477b61463c565b5b828202905092915050565b7f57726f6e6720616d6f756e74206f66204554482073656e740000000000000000600082015250565b60006147bd6018836137ff565b91506147c882614787565b602082019050919050565b600060208201905081810360008301526147ec816147b0565b9050919050565b60006147fe826138af565b9150614809836138af565b92508282101561481c5761481b61463c565b5b828203905092915050565b6000614832826138af565b91507fffffffffffffffffffffffffffffffffffffffffffffffffffffffffffffffff8214156148655761486461463c565b5b600182019050919050565b7f455243373231456e756d657261626c653a20676c6f62616c20696e646578206f60008201527f7574206f6620626f756e64730000000000000000000000000000000000000000602082015250565b60006148cc602c836137ff565b91506148d782614870565b604082019050919050565b600060208201905081810360008301526148fb816148bf565b9050919050565b7f4e487b7100000000000000000000000000000000000000000000000000000000600052603260045260246000fd5b7f4552433732313a206f776e657220717565727920666f72206e6f6e657869737460008201527f656e7420746f6b656e0000000000000000000000000000000000000000000000602082015250565b600061498d6029836137ff565b915061499882614931565b604082019050919050565b600060208201905081810360008301526149bc81614980565b9050919050565b7f4552433732313a2062616c616e636520717565727920666f7220746865207a6560008201527f726f206164647265737300000000000000000000000000000000000000000000602082015250565b6000614a1f602a836137ff565b9150614a2a826149c3565b604082019050919050565b60006020820190508181036000830152614a4e81614a12565b9050919050565b7f43616e27742072657365727665206d6f7265207468616e2073657420616d6f7560008201527f6e74000000000000000000000000000000000000000000000000000000000000602082015250565b6000614ab16022836137ff565b9150614abc82614a55565b604082019050919050565b60006020820190508181036000830152614ae081614aa4565b9050919050565b7f53616c652069736e277420616374697665000000000000000000000000000000600082015250565b6000614b1d6011836137ff565b9150614b2882614ae7565b602082019050919050565b60006020820190508181036000830152614b4c81614b10565b9050919050565b7f43616e206f6e6c79206d696e74206265747765656e203120616e64203130207460008201527f6f6b656e73206174206f6e636500000000000000000000000000000000000000602082015250565b6000614baf602d836137ff565b9150614bba82614b53565b604082019050919050565b60006020820190508181036000830152614bde81614ba2565b9050919050565b7f4552433732314d657461646174613a2055524920717565727920666f72206e6f60008201527f6e6578697374656e7420746f6b656e0000000000000000000000000000000000602082015250565b6000614c41602f836137ff565b9150614c4c82614be5565b604082019050919050565b60006020820190508181036000830152614c7081614c34565b9050919050565b600081905092915050565b6000614c8d826137f4565b614c978185614c77565b9350614ca7818560208601613810565b80840191505092915050565b6000614cbf8285614c82565b9150614ccb8284614c82565b91508190509392505050565b7f4f776e61626c653a206e6577206f776e657220697320746865207a65726f206160008201527f6464726573730000000000000000000000000000000000000000000000000000602082015250565b6000614d336026836137ff565b9150614d3e82614cd7565b604082019050919050565b60006020820190508181036000830152614d6281614d26565b9050919050565b7f50726573616c652069736e277420616374697665000000000000000000000000600082015250565b6000614d9f6014836137ff565b9150614daa82614d69565b602082019050919050565b60006020820190508181036000830152614dce81614d92565b9050919050565b7f43616e206f6e6c79206d696e74206265747765656e203120616e64203230207460008201527f6f6b656e73206174206f6e636500000000000000000000000000000000000000602082015250565b6000614e31602d836137ff565b9150614e3c82614dd5565b604082019050919050565b60006020820190508181036000830152614e6081614e24565b9050919050565b7f4e487b7100000000000000000000000000000000000000000000000000000000600052601260045260246000fd5b6000614ea1826138af565b9150614eac836138af565b925082614ebc57614ebb614e67565b5b828204905092915050565b7f4552433732313a206f70657261746f7220717565727920666f72206e6f6e657860008201527f697374656e7420746f6b656e0000000000000000000000000000000000000000602082015250565b6000614f23602c836137ff565b9150614f2e82614ec7565b604082019050919050565b60006020820190508181036000830152614f5281614f16565b9050919050565b7f4552433732313a207472616e736665722066726f6d20696e636f72726563742060008201527f6f776e6572000000000000000000000000000000000000000000000000000000602082015250565b6000614fb56025836137ff565b9150614fc082614f59565b604082019050919050565b60006020820190508181036000830152614fe481614fa8565b9050919050565b7f4552433732313a207472616e7366657220746f20746865207a65726f2061646460008201527f7265737300000000000000000000000000000000000000000000000000000000602082015250565b60006150476024836137ff565b915061505282614feb565b604082019050919050565b600060208201905081810360008301526150768161503a565b9050919050565b7f4552433732313a20617070726f766520746f2063616c6c657200000000000000600082015250565b60006150b36019836137ff565b91506150be8261507d565b602082019050919050565b600060208201905081810360008301526150e2816150a6565b9050919050565b7f4552433732313a207472616e7366657220746f206e6f6e20455243373231526560008201527f63656976657220696d706c656d656e7465720000000000000000000000000000602082015250565b60006151456032836137ff565b9150615150826150e9565b604082019050919050565b6000602082019050818103600083015261517481615138565b9050919050565b6000615186826138af565b9150615191836138af565b9250826151a1576151a0614e67565b5b828206905092915050565b600081519050919050565b600082825260208201905092915050565b60006151d3826151ac565b6151dd81856151b7565b93506151ed818560208601613810565b6151f681613843565b840191505092915050565b60006080820190506152166000830187613944565b6152236020830186613944565b61523060408301856139da565b818103606083015261524281846151c8565b905095945050505050565b60008151905061525c81613765565b92915050565b6000602082840312156152785761527761372f565b5b60006152868482850161524d565b91505092915050565b7f4e487b7100000000000000000000000000000000000000000000000000000000600052603160045260246000fd5b7f4552433732313a206d696e7420746f20746865207a65726f2061646472657373600082015250565b60006152f46020836137ff565b91506152ff826152be565b602082019050919050565b60006020820190508181036000830152615323816152e7565b9050919050565b7f4552433732313a20746f6b656e20616c7265616479206d696e74656400000000600082015250565b6000615360601c836137ff565b915061536b8261532a565b602082019050919050565b6000602082019050818103600083015261538f81615353565b905091905056fea2646970667358221220b501551b3b1c7325aff190e8ebce10e176e5409a621933d6ceba20d8b141569864736f6c634300080c003368747470733a2f2f6e66742d636f6c6c656374696f6e2d6170692d746573742e6865726f6b756170702e636f6d2f",
  "linkReferences": {},
  "deployedLinkReferences": {}
}